{
  "_format": "hh-sol-artifact-1",
  "contractName": "AttackerContract",
  "sourceName": "contracts/test/mocks/AttackerWhitelistingContract.sol",
  "abi": [
    {
      "inputs": [
        {
          "internalType": "address",
          "name": "_ssvContract",
          "type": "address"
        }
      ],
      "stateMutability": "nonpayable",
      "type": "constructor"
    },
    {
      "inputs": [
        {
          "internalType": "bytes",
          "name": "_publicKey",
          "type": "bytes"
        },
        {
          "internalType": "uint64[]",
          "name": "_operatorIds",
          "type": "uint64[]"
        },
        {
          "internalType": "bytes",
          "name": "_sharesData",
          "type": "bytes"
        },
        {
          "internalType": "uint256",
          "name": "_amount",
          "type": "uint256"
        },
        {
          "components": [
            {
              "internalType": "uint32",
              "name": "validatorCount",
              "type": "uint32"
            },
            {
              "internalType": "uint64",
              "name": "networkFeeIndex",
              "type": "uint64"
            },
            {
              "internalType": "uint64",
              "name": "index",
              "type": "uint64"
            },
            {
              "internalType": "bool",
              "name": "active",
              "type": "bool"
            },
            {
              "internalType": "uint256",
              "name": "balance",
              "type": "uint256"
            }
          ],
          "internalType": "struct ISSVNetworkCore.Cluster",
          "name": "_cluserData",
          "type": "tuple"
        }
      ],
      "name": "startAttack",
      "outputs": [],
      "stateMutability": "nonpayable",
      "type": "function"
    }
  ],
  "bytecode": "0x608060405234801561000f575f80fd5b5060405161053238038061053283398101604081905261002e91610052565b5f80546001600160a01b0319166001600160a01b039290921691909117905561007f565b5f60208284031215610062575f80fd5b81516001600160a01b0381168114610078575f80fd5b9392505050565b6104a68061008c5f395ff3fe608060405234801561000f575f80fd5b5060043610610029575f3560e01c8063caf8ec9c1461002d575b5f80fd5b61004061003b36600461024e565b610042565b005b5f546040517f06e8fb9c00000000000000000000000000000000000000000000000000000000815273ffffffffffffffffffffffffffffffffffffffff909116906306e8fb9c906100a3908a908a908a908a908a908a908a906004016103a5565b5f604051808303815f87803b1580156100ba575f80fd5b505af11580156100cc573d5f803e3d5ffd5b5050505050505050505050565b5f8083601f8401126100e9575f80fd5b50813567ffffffffffffffff811115610100575f80fd5b602083019150836020828501011115610117575f80fd5b9250929050565b7f4e487b71000000000000000000000000000000000000000000000000000000005f52604160045260245ffd5b604051601f82017fffffffffffffffffffffffffffffffffffffffffffffffffffffffffffffffe016810167ffffffffffffffff811182821017156101925761019261011e565b604052919050565b803567ffffffffffffffff811681146101b1575f80fd5b919050565b5f60a082840312156101c6575f80fd5b60405160a0810181811067ffffffffffffffff821117156101e9576101e961011e565b604052905080823563ffffffff81168114610202575f80fd5b81526102106020840161019a565b60208201526102216040840161019a565b604082015260608301358015158114610238575f80fd5b6060820152608092830135920191909152919050565b5f805f805f805f610120888a031215610265575f80fd5b873567ffffffffffffffff8082111561027c575f80fd5b6102888b838c016100d9565b90995097506020915089820135818111156102a1575f80fd5b8a01601f81018c136102b1575f80fd5b8035828111156102c3576102c361011e565b8060051b6102d285820161014b565b918252828101850191858101908f8411156102eb575f80fd5b938601935b83851015610310576103018561019a565b825293860193908601906102f0565b9a5050505060408b013592505080821115610329575f80fd5b506103368a828b016100d9565b909550935050606088013591506103508960808a016101b6565b905092959891949750929550565b81835281816020850137505f602082840101525f60207fffffffffffffffffffffffffffffffffffffffffffffffffffffffffffffffe0601f840116840101905092915050565b5f6101208083526103b98184018a8c61035e565b90506020838203818501528189518084528284019150828b0193505f5b818110156103fc57845167ffffffffffffffff16835293830193918301916001016103d6565b5050848103604086015261041181898b61035e565b93505085606085015263ffffffff85511660808501528085015191505067ffffffffffffffff80821660a08501528060408601511660c085015250506060830151151560e083015260808301516101008301529897505050505050505056fea264697066735822122002680e1b8766187629b4dd95b671047f5fe2dcac7e0343953f8daeb779c631fe64736f6c63430008180033",
  "linkReferences": {},
  "deployedLinkReferences": {}
}