{
  "_format": "hh-sol-artifact-1",
  "contractName": "SSVViews",
  "sourceName": "contracts/modules/SSVViews.sol",
  "abi": [
    {
      "inputs": [
        {
          "internalType": "address",
          "name": "contractAddress",
          "type": "address"
        }
      ],
      "name": "AddressIsWhitelistingContract",
      "type": "error"
    },
    {
      "inputs": [],
      "name": "ApprovalNotWithinTimeframe",
      "type": "error"
    },
    {
      "inputs": [],
      "name": "CallerNotOwner",
      "type": "error"
    },
    {
      "inputs": [
        {
          "internalType": "address",
          "name": "caller",
          "type": "address"
        },
        {
          "internalType": "address",
          "name": "owner",
          "type": "address"
        }
      ],
      "name": "CallerNotOwnerWithData",
      "type": "error"
    },
    {
      "inputs": [],
      "name": "CallerNotWhitelisted",
      "type": "error"
    },
    {
      "inputs": [
        {
          "internalType": "uint64",
          "name": "operatorId",
          "type": "uint64"
        }
      ],
      "name": "CallerNotWhitelistedWithData",
      "type": "error"
    },
    {
      "inputs": [],
      "name": "ClusterAlreadyEnabled",
      "type": "error"
    },
    {
      "inputs": [],
      "name": "ClusterDoesNotExists",
      "type": "error"
    },
    {
      "inputs": [],
      "name": "ClusterIsLiquidated",
      "type": "error"
    },
    {
      "inputs": [],
      "name": "ClusterNotLiquidatable",
      "type": "error"
    },
    {
      "inputs": [],
      "name": "EmptyPublicKeysList",
      "type": "error"
    },
    {
      "inputs": [
        {
          "internalType": "uint64",
          "name": "operatorId",
          "type": "uint64"
        }
      ],
      "name": "ExceedValidatorLimit",
      "type": "error"
    },
    {
      "inputs": [
        {
          "internalType": "uint64",
          "name": "operatorId",
          "type": "uint64"
        }
      ],
      "name": "ExceedValidatorLimitWithData",
      "type": "error"
    },
    {
      "inputs": [],
      "name": "FeeExceedsIncreaseLimit",
      "type": "error"
    },
    {
      "inputs": [],
      "name": "FeeIncreaseNotAllowed",
      "type": "error"
    },
    {
      "inputs": [],
      "name": "FeeTooHigh",
      "type": "error"
    },
    {
      "inputs": [],
      "name": "FeeTooLow",
      "type": "error"
    },
    {
      "inputs": [],
      "name": "IncorrectClusterState",
      "type": "error"
    },
    {
      "inputs": [],
      "name": "IncorrectValidatorState",
      "type": "error"
    },
    {
      "inputs": [
        {
          "internalType": "bytes",
          "name": "publicKey",
          "type": "bytes"
        }
      ],
      "name": "IncorrectValidatorStateWithData",
      "type": "error"
    },
    {
      "inputs": [],
      "name": "InsufficientBalance",
      "type": "error"
    },
    {
      "inputs": [],
      "name": "InvalidContractAddress",
      "type": "error"
    },
    {
      "inputs": [],
      "name": "InvalidOperatorIdsLength",
      "type": "error"
    },
    {
      "inputs": [],
      "name": "InvalidPublicKeyLength",
      "type": "error"
    },
    {
      "inputs": [],
      "name": "InvalidWhitelistAddressesLength",
      "type": "error"
    },
    {
      "inputs": [
        {
          "internalType": "address",
          "name": "contractAddress",
          "type": "address"
        }
      ],
      "name": "InvalidWhitelistingContract",
      "type": "error"
    },
    {
      "inputs": [],
      "name": "MaxValueExceeded",
      "type": "error"
    },
    {
      "inputs": [],
      "name": "NewBlockPeriodIsBelowMinimum",
      "type": "error"
    },
    {
      "inputs": [],
      "name": "NoFeeDeclared",
      "type": "error"
    },
    {
      "inputs": [],
      "name": "NotAuthorized",
      "type": "error"
    },
    {
      "inputs": [],
      "name": "OperatorAlreadyExists",
      "type": "error"
    },
    {
      "inputs": [],
      "name": "OperatorDoesNotExist",
      "type": "error"
    },
    {
      "inputs": [],
      "name": "OperatorsListNotUnique",
      "type": "error"
    },
    {
      "inputs": [],
      "name": "PublicKeysSharesLengthMismatch",
      "type": "error"
    },
    {
      "inputs": [],
      "name": "SameFeeChangeNotAllowed",
      "type": "error"
    },
    {
      "inputs": [],
      "name": "TargetModuleDoesNotExist",
      "type": "error"
    },
    {
      "inputs": [
        {
          "internalType": "uint8",
          "name": "moduleId",
          "type": "uint8"
        }
      ],
      "name": "TargetModuleDoesNotExistWithData",
      "type": "error"
    },
    {
      "inputs": [],
      "name": "TokenTransferFailed",
      "type": "error"
    },
    {
      "inputs": [],
      "name": "UnsortedOperatorsList",
      "type": "error"
    },
    {
      "inputs": [],
      "name": "ValidatorAlreadyExists",
      "type": "error"
    },
    {
      "inputs": [
        {
          "internalType": "bytes",
          "name": "publicKey",
          "type": "bytes"
        }
      ],
      "name": "ValidatorAlreadyExistsWithData",
      "type": "error"
    },
    {
      "inputs": [],
      "name": "ValidatorDoesNotExist",
      "type": "error"
    },
    {
      "inputs": [],
      "name": "ZeroAddressNotAllowed",
      "type": "error"
    },
    {
      "inputs": [
        {
          "internalType": "address",
          "name": "clusterOwner",
          "type": "address"
        },
        {
          "internalType": "uint64[]",
          "name": "operatorIds",
          "type": "uint64[]"
        },
        {
          "components": [
            {
              "internalType": "uint32",
              "name": "validatorCount",
              "type": "uint32"
            },
            {
              "internalType": "uint64",
              "name": "networkFeeIndex",
              "type": "uint64"
            },
            {
              "internalType": "uint64",
              "name": "index",
              "type": "uint64"
            },
            {
              "internalType": "bool",
              "name": "active",
              "type": "bool"
            },
            {
              "internalType": "uint256",
              "name": "balance",
              "type": "uint256"
            }
          ],
          "internalType": "struct ISSVNetworkCore.Cluster",
          "name": "cluster",
          "type": "tuple"
        }
      ],
      "name": "getBalance",
      "outputs": [
        {
          "internalType": "uint256",
          "name": "",
          "type": "uint256"
        }
      ],
      "stateMutability": "view",
      "type": "function"
    },
    {
      "inputs": [
        {
          "internalType": "address",
          "name": "clusterOwner",
          "type": "address"
        },
        {
          "internalType": "uint64[]",
          "name": "operatorIds",
          "type": "uint64[]"
        },
        {
          "components": [
            {
              "internalType": "uint32",
              "name": "validatorCount",
              "type": "uint32"
            },
            {
              "internalType": "uint64",
              "name": "networkFeeIndex",
              "type": "uint64"
            },
            {
              "internalType": "uint64",
              "name": "index",
              "type": "uint64"
            },
            {
              "internalType": "bool",
              "name": "active",
              "type": "bool"
            },
            {
              "internalType": "uint256",
              "name": "balance",
              "type": "uint256"
            }
          ],
          "internalType": "struct ISSVNetworkCore.Cluster",
          "name": "cluster",
          "type": "tuple"
        }
      ],
      "name": "getBurnRate",
      "outputs": [
        {
          "internalType": "uint256",
          "name": "",
          "type": "uint256"
        }
      ],
      "stateMutability": "view",
      "type": "function"
    },
    {
      "inputs": [],
      "name": "getLiquidationThresholdPeriod",
      "outputs": [
        {
          "internalType": "uint64",
          "name": "",
          "type": "uint64"
        }
      ],
      "stateMutability": "view",
      "type": "function"
    },
    {
      "inputs": [],
      "name": "getMaximumOperatorFee",
      "outputs": [
        {
          "internalType": "uint64",
          "name": "",
          "type": "uint64"
        }
      ],
      "stateMutability": "view",
      "type": "function"
    },
    {
      "inputs": [],
      "name": "getMinimumLiquidationCollateral",
      "outputs": [
        {
          "internalType": "uint256",
          "name": "",
          "type": "uint256"
        }
      ],
      "stateMutability": "view",
      "type": "function"
    },
    {
      "inputs": [],
      "name": "getNetworkEarnings",
      "outputs": [
        {
          "internalType": "uint256",
          "name": "",
          "type": "uint256"
        }
      ],
      "stateMutability": "view",
      "type": "function"
    },
    {
      "inputs": [],
      "name": "getNetworkFee",
      "outputs": [
        {
          "internalType": "uint256",
          "name": "",
          "type": "uint256"
        }
      ],
      "stateMutability": "view",
      "type": "function"
    },
    {
      "inputs": [],
      "name": "getNetworkValidatorsCount",
      "outputs": [
        {
          "internalType": "uint32",
          "name": "",
          "type": "uint32"
        }
      ],
      "stateMutability": "view",
      "type": "function"
    },
    {
      "inputs": [
        {
          "internalType": "uint64",
          "name": "operatorId",
          "type": "uint64"
        }
      ],
      "name": "getOperatorById",
      "outputs": [
        {
          "internalType": "address",
          "name": "owner",
          "type": "address"
        },
        {
          "internalType": "uint256",
          "name": "fee",
          "type": "uint256"
        },
        {
          "internalType": "uint32",
          "name": "validatorCount",
          "type": "uint32"
        },
        {
          "internalType": "address",
          "name": "whitelistedAddress",
          "type": "address"
        },
        {
          "internalType": "bool",
          "name": "isPrivate",
          "type": "bool"
        },
        {
          "internalType": "bool",
          "name": "isActive",
          "type": "bool"
        }
      ],
      "stateMutability": "view",
      "type": "function"
    },
    {
      "inputs": [
        {
          "internalType": "uint64",
          "name": "operatorId",
          "type": "uint64"
        }
      ],
      "name": "getOperatorDeclaredFee",
      "outputs": [
        {
          "internalType": "bool",
          "name": "",
          "type": "bool"
        },
        {
          "internalType": "uint256",
          "name": "",
          "type": "uint256"
        },
        {
          "internalType": "uint64",
          "name": "",
          "type": "uint64"
        },
        {
          "internalType": "uint64",
          "name": "",
          "type": "uint64"
        }
      ],
      "stateMutability": "view",
      "type": "function"
    },
    {
      "inputs": [
        {
          "internalType": "uint64",
          "name": "id",
          "type": "uint64"
        }
      ],
      "name": "getOperatorEarnings",
      "outputs": [
        {
          "internalType": "uint256",
          "name": "",
          "type": "uint256"
        }
      ],
      "stateMutability": "view",
      "type": "function"
    },
    {
      "inputs": [
        {
          "internalType": "uint64",
          "name": "operatorId",
          "type": "uint64"
        }
      ],
      "name": "getOperatorFee",
      "outputs": [
        {
          "internalType": "uint256",
          "name": "",
          "type": "uint256"
        }
      ],
      "stateMutability": "view",
      "type": "function"
    },
    {
      "inputs": [],
      "name": "getOperatorFeeIncreaseLimit",
      "outputs": [
        {
          "internalType": "uint64",
          "name": "",
          "type": "uint64"
        }
      ],
      "stateMutability": "view",
      "type": "function"
    },
    {
      "inputs": [],
      "name": "getOperatorFeePeriods",
      "outputs": [
        {
          "internalType": "uint64",
          "name": "",
          "type": "uint64"
        },
        {
          "internalType": "uint64",
          "name": "",
          "type": "uint64"
        }
      ],
      "stateMutability": "view",
      "type": "function"
    },
    {
      "inputs": [
        {
          "internalType": "address",
          "name": "clusterOwner",
          "type": "address"
        },
        {
          "internalType": "bytes",
          "name": "publicKey",
          "type": "bytes"
        }
      ],
      "name": "getValidator",
      "outputs": [
        {
          "internalType": "bool",
          "name": "",
          "type": "bool"
        }
      ],
      "stateMutability": "view",
      "type": "function"
    },
    {
      "inputs": [],
      "name": "getValidatorsPerOperatorLimit",
      "outputs": [
        {
          "internalType": "uint32",
          "name": "",
          "type": "uint32"
        }
      ],
      "stateMutability": "view",
      "type": "function"
    },
    {
      "inputs": [],
      "name": "getVersion",
      "outputs": [
        {
          "internalType": "string",
          "name": "",
          "type": "string"
        }
      ],
      "stateMutability": "pure",
      "type": "function"
    },
    {
      "inputs": [
        {
          "internalType": "uint64[]",
          "name": "operatorIds",
          "type": "uint64[]"
        },
        {
          "internalType": "address",
          "name": "addressToCheck",
          "type": "address"
        }
      ],
      "name": "getWhitelistedOperators",
      "outputs": [
        {
          "internalType": "uint64[]",
          "name": "whitelistedOperatorIds",
          "type": "uint64[]"
        }
      ],
      "stateMutability": "view",
      "type": "function"
    },
    {
      "inputs": [
        {
          "internalType": "address",
          "name": "addressToCheck",
          "type": "address"
        },
        {
          "internalType": "uint256",
          "name": "operatorId",
          "type": "uint256"
        },
        {
          "internalType": "address",
          "name": "whitelistingContract",
          "type": "address"
        }
      ],
      "name": "isAddressWhitelistedInWhitelistingContract",
      "outputs": [
        {
          "internalType": "bool",
          "name": "",
          "type": "bool"
        }
      ],
      "stateMutability": "view",
      "type": "function"
    },
    {
      "inputs": [
        {
          "internalType": "address",
          "name": "clusterOwner",
          "type": "address"
        },
        {
          "internalType": "uint64[]",
          "name": "operatorIds",
          "type": "uint64[]"
        },
        {
          "components": [
            {
              "internalType": "uint32",
              "name": "validatorCount",
              "type": "uint32"
            },
            {
              "internalType": "uint64",
              "name": "networkFeeIndex",
              "type": "uint64"
            },
            {
              "internalType": "uint64",
              "name": "index",
              "type": "uint64"
            },
            {
              "internalType": "bool",
              "name": "active",
              "type": "bool"
            },
            {
              "internalType": "uint256",
              "name": "balance",
              "type": "uint256"
            }
          ],
          "internalType": "struct ISSVNetworkCore.Cluster",
          "name": "cluster",
          "type": "tuple"
        }
      ],
      "name": "isLiquidatable",
      "outputs": [
        {
          "internalType": "bool",
          "name": "",
          "type": "bool"
        }
      ],
      "stateMutability": "view",
      "type": "function"
    },
    {
      "inputs": [
        {
          "internalType": "address",
          "name": "clusterOwner",
          "type": "address"
        },
        {
          "internalType": "uint64[]",
          "name": "operatorIds",
          "type": "uint64[]"
        },
        {
          "components": [
            {
              "internalType": "uint32",
              "name": "validatorCount",
              "type": "uint32"
            },
            {
              "internalType": "uint64",
              "name": "networkFeeIndex",
              "type": "uint64"
            },
            {
              "internalType": "uint64",
              "name": "index",
              "type": "uint64"
            },
            {
              "internalType": "bool",
              "name": "active",
              "type": "bool"
            },
            {
              "internalType": "uint256",
              "name": "balance",
              "type": "uint256"
            }
          ],
          "internalType": "struct ISSVNetworkCore.Cluster",
          "name": "cluster",
          "type": "tuple"
        }
      ],
      "name": "isLiquidated",
      "outputs": [
        {
          "internalType": "bool",
          "name": "",
          "type": "bool"
        }
      ],
      "stateMutability": "view",
      "type": "function"
    },
    {
      "inputs": [
        {
          "internalType": "address",
          "name": "contractAddress",
          "type": "address"
        }
      ],
      "name": "isWhitelistingContract",
      "outputs": [
        {
          "internalType": "bool",
          "name": "",
          "type": "bool"
        }
      ],
      "stateMutability": "view",
      "type": "function"
    }
  ],
  "bytecode": "0x608060405234801561000f575f80fd5b506123948061001d5f395ff3fe608060405234801561000f575f80fd5b5060043610610179575f3560e01c80639568f9d9116100d2578063be3f058e11610088578063e6d2834d11610063578063e6d2834d1461037f578063eb8ecfa7146103a8578063fc043830146103bb575f80fd5b8063be3f058e146102fd578063ca162e5e14610364578063df02ef7f14610377575f80fd5b8063a694695b116100b8578063a694695b146102b7578063a9cf9eec146102ca578063bac69e6f146102ea575f80fd5b80639568f9d91461029c5780639ad3c745146102a4575f80fd5b806346e6d917116101325780636d0db0e41161010d5780636d0db0e414610279578063777915cb1461028c5780639040f7c314610294575f80fd5b806346e6d9171461022f5780635ba3d62a1461024257806368465f7d14610258575f80fd5b806314cb9d7b1161016257806314cb9d7b146101dc57806316cff008146101f95780633e2ec1601461021c575f80fd5b806303b3d4361461017d5780630d8e6e2c146101c7575b5f80fd5b61019061018b366004611d7b565b6103c3565b604080519415158552602085019390935267ffffffffffffffff918216928401929092521660608201526080015b60405180910390f35b6101cf61045e565b6040516101be9190611d94565b6101e461049f565b60405163ffffffff90911681526020016101be565b61020c610207366004611ec1565b6104c4565b60405190151581526020016101be565b61020c61022a366004611fdf565b6106e3565b61020c61023d36600461205b565b610767565b61024a610832565b6040519081526020016101be565b610260610865565b60405167ffffffffffffffff90911681526020016101be565b61024a610287366004611d7b565b61088d565b61024a61096f565b610260610992565b6101e46109ba565b61024a6102b2366004611d7b565b6109d7565b61020c6102c5366004611ec1565b610a16565b6102dd6102d8366004612094565b610a65565b6040516101be91906120db565b61020c6102f8366004612128565b610e62565b61031061030b366004611d7b565b610e6c565b6040805173ffffffffffffffffffffffffffffffffffffffff9788168152602081019690965263ffffffff9094169385019390935293166060830152911515608082015290151560a082015260c0016101be565b61024a610372366004611ec1565b610f4e565b61026061110f565b61038761113f565b6040805167ffffffffffffffff9384168152929091166020830152016101be565b61024a6103b6366004611ec1565b611193565b61024a611342565b5f805f805f6103d0611372565b67ffffffffffffffff8088165f908152600592909201602090815260409283902083516060810185529054808416808352680100000000000000008204851693830184905270010000000000000000000000000000000090910490931693810193909352919250901515906104449061139f565b826020015183604001519450945094509450509193509193565b606061049a60408051808201909152600681527f76312e322e300000000000000000000000000000000000000000000000000000602082015290565b905090565b5f6104a86113b7565b546c01000000000000000000000000900463ffffffff16919050565b5f61050e858585808060200260200160405190810160405280939291908181526020018383602002808284375f920191909152506105059250611372915050565b859291906113e4565b50816060015161051f57505f6106db565b5f8084815b8181101561066b575f610535611372565b6006015f8a8a8581811061054b5761054b612141565b90506020020160208101906105609190611d7b565b67ffffffffffffffff908116825260208083019390935260409182015f20825160a081018452815463ffffffff8082168352640100000000808304861684890190815273ffffffffffffffffffffffffffffffffffffffff6c01000000000000000000000000948590041685890152600186015460ff1615156060808701919091528851908101895260029096015480841687529182048716988601989098529190910490931693820193909352608083018190529251925191935061062791164361219b565b61063191906121c3565b81608001516020015161064491906121ef565b61064e90866121ef565b945080602001518461066091906121ef565b935050600101610524565b505f6106756113b7565b905061068c84610684836114a7565b889190611516565b805460018201546106d4918891869167ffffffffffffffff700100000000000000000000000000000000918290048116926801000000000000000081048216929004166115c3565b9450505050505b949350505050565b5f806106ed611372565b6040515f9061070490879087908a90602001612210565b604080517fffffffffffffffffffffffffffffffffffffffffffffffffffffffffffffffe08184030181529181528151602092830120835290820192909252015f2054905080610757575f915050610760565b60019081161490505b9392505050565b5f61077182611648565b1580610791575073ffffffffffffffffffffffffffffffffffffffff8416155b1561079d57505f610760565b6040517f830639ac00000000000000000000000000000000000000000000000000000000815273ffffffffffffffffffffffffffffffffffffffff85811660048301526024820185905283169063830639ac90604401602060405180830381865afa15801561080e573d5f803e3d5ffd5b505050506040513d601f19601f820116820180604052508101906106db9190612249565b5f61049a61083e6113b7565b60010154700100000000000000000000000000000000900467ffffffffffffffff1661139f565b5f61086e6113b7565b6002015468010000000000000000900467ffffffffffffffff16919050565b5f80610897611372565b67ffffffffffffffff8085165f9081526006929092016020908152604092839020835160a081018552815463ffffffff808216835264010000000080830487168487015273ffffffffffffffffffffffffffffffffffffffff6c01000000000000000000000000938490041684890152600185015460ff1615156060808601919091528851908101895260029095015491821685528104861694840194909452909204909216928201929092526080820152905061095481611673565b61076081608001516040015167ffffffffffffffff1661139f565b5f61049a61098361097e6113b7565b611704565b67ffffffffffffffff1661139f565b5f61099b6113b7565b6001015468010000000000000000900467ffffffffffffffff16919050565b5f6109c36113b7565b54640100000000900463ffffffff16919050565b5f610a106109e3611372565b67ffffffffffffffff8085165f90815260069290920160205260409091205464010000000090041661139f565b92915050565b5f610a57858585808060200260200160405190810160405280939291908181526020018383602002808284375f920191909152506105059250611372915050565b505060600151159392505050565b606082801580610a89575073ffffffffffffffffffffffffffffffffffffffff8316155b15610a945750610760565b5f610a9d611372565b90505f805f610aae89895f8761177b565b915091505f8567ffffffffffffffff811115610acc57610acc611e69565b604051908082528060200260200182016040528015610af5578160200160208202803683370190505b5090505f835183610b069190612264565b9050825b81811015610c0d575f85610b1e8684612277565b81518110610b2e57610b2e612141565b60200260200101519050805f14610c045773ffffffffffffffffffffffffffffffffffffffff8b165f90815260098901602090815260408083208584529091528120549082821690600885901b905b610100811015610bff576001811b831615610bf757610b9c8183612264565b888c610ba78161228a565b9d5081518110610bb957610bb9612141565b602002602001019067ffffffffffffffff16908167ffffffffffffffff16815250508c8b03610bf757879d5050505050505050505050505050610760565b600101610b7d565b505050505b50600101610b0a565b508482528667ffffffffffffffff811115610c2a57610c2a611e69565b604051908082528060200260200182016040528015610c53578160200160208202803683370190505b5097505f805f5b89811015610e50575f8e8e83818110610c7557610c75612141565b9050602002016020810190610c8a9190611d7b565b90508884108015610cc75750858481518110610ca857610ca8612141565b602002602001015167ffffffffffffffff168167ffffffffffffffff16145b15610d1357808c84610cd88161228a565b955081518110610cea57610cea612141565b67ffffffffffffffff90921660209283029190910190910152610d0c8461228a565b9350610e47565b67ffffffffffffffff81165f90815260048b01602052604090205473ffffffffffffffffffffffffffffffffffffffff908116908e16811480610dff5750610d5a81611648565b8015610dff57506040517f830639ac00000000000000000000000000000000000000000000000000000000815273ffffffffffffffffffffffffffffffffffffffff8f8116600483015267ffffffffffffffff8416602483015282169063830639ac90604401602060405180830381865afa158015610ddb573d5f803e3d5ffd5b505050506040513d601f19601f82011682018060405250810190610dff9190612249565b15610e4557818d85610e108161228a565b965081518110610e2257610e22612141565b602002602001019067ffffffffffffffff16908167ffffffffffffffff16815250505b505b50600101610c5a565b50895250505050505050509392505050565b5f610a1082611648565b5f805f805f805f610e7b611372565b67ffffffffffffffff808a165f9081526006929092016020526040909120805473ffffffffffffffffffffffffffffffffffffffff6c010000000000000000000000008204169950909250610ed9916401000000009091041661139f565b815490965063ffffffff169450610eee611372565b67ffffffffffffffff9098165f908152600498909801602052604090972054600188015460029098015496989597949673ffffffffffffffffffffffffffffffffffffffff9091169560ff9095169463ffffffff90911615159350915050565b5f610f8f858585808060200260200160405190810160405280939291908181526020018383602002808284375f920191909152506105059250611372915050565b505f83815b818110156110a8575f610fa5611372565b6006015f898985818110610fbb57610fbb612141565b9050602002016020810190610fd09190611d7b565b67ffffffffffffffff908116825260208083019390935260409182015f20825160a081018452815463ffffffff808216835264010000000080830486168489015273ffffffffffffffffffffffffffffffffffffffff6c01000000000000000000000000938490048116858901908152600187015460ff16151560608088019190915289519081018a52600290970154938416875291830487169886019890985291900490931693820193909352608083015251909250161561109f57602081015161109c90856121ef565b93505b50600101610f94565b5083515f9063ffffffff166110bb6113b7565b546110e490700100000000000000000000000000000000900467ffffffffffffffff16856121ef565b6110ee91906121c3565b90506111038167ffffffffffffffff1661139f565b98975050505050505050565b5f6111186113b7565b60020154700100000000000000000000000000000000900467ffffffffffffffff16919050565b5f806111496113b7565b600101547801000000000000000000000000000000000000000000000000900467ffffffffffffffff1661117b6113b7565b60020154909367ffffffffffffffff90911692509050565b5f6111d4858585808060200260200160405190810160405280939291908181526020018383602002808284375f920191909152506105059250611372915050565b506111de82611a5d565b5f83815b81811015611317575f6111f3611372565b6006015f89898581811061120957611209612141565b905060200201602081019061121e9190611d7b565b67ffffffffffffffff908116825260208083019390935260409182015f20825160a081018452815463ffffffff8082168352640100000000808304861684890190815273ffffffffffffffffffffffffffffffffffffffff6c01000000000000000000000000948590041685890152600186015460ff161515606080870191909152885190810189526002909601548084168752918204871698860198909852919091049093169382019390935260808301819052925192519193506112e591164361219b565b6112ef91906121c3565b81608001516020015161130291906121ef565b61130c90856121ef565b9350506001016111e2565b50506113358161132d6113286113b7565b6114a7565b859190611516565b5050608001519392505050565b5f61049a61134e6113b7565b54700100000000000000000000000000000000900467ffffffffffffffff1661139f565b5f80610a1060017fd56c4f4aab8ca22f9fde432777379f436593c6027698a6995e2daea890bed105612277565b5f610a106298968067ffffffffffffffff84166122c1565b5f80610a1060017f0f1d85405047bdb6b0a60e27531f52a1f7a948613527b9b83a7552558207aa16612277565b5f83836040516020016113f89291906122d8565b6040516020818303038152906040528051906020012090505f61141a86611a9b565b5f83815260018501602052604090205490915080611464576040517f185e2b1600000000000000000000000000000000000000000000000000000000815260040160405180910390fd5b81811461149d576040517f12e04c8700000000000000000000000000000000000000000000000000000000815260040160405180910390fd5b5050949350505050565b80545f9067ffffffffffffffff700100000000000000000000000000000000820416906114da9063ffffffff1643612277565b6114e491906121c3565b8254610a1091907801000000000000000000000000000000000000000000000000900467ffffffffffffffff166121ef565b825160208401515f9163ffffffff1690611530908461219b565b61153a91906121c3565b90505f81855f015163ffffffff16866040015186611558919061219b565b61156291906121c3565b61156c91906121ef565b905084608001516115868267ffffffffffffffff1661139f565b116115b25761159e8167ffffffffffffffff1661139f565b85608001516115ad9190612277565b6115b4565b5f5b60809095019490945250505050565b84515f9063ffffffff161561163f576115e58267ffffffffffffffff1661139f565b866080015110156115f85750600161163f565b85515f9063ffffffff1661160c86886121ef565b61161690866121c3565b61162091906121c3565b90506116358167ffffffffffffffff1661139f565b8760800151109150505b95945050505050565b5f610a10827f830639ac00000000000000000000000000000000000000000000000000000000611b56565b60208101516080820151515f919061168b9043612341565b63ffffffff1661169b91906121c3565b90508082608001516020018181516116b391906121ef565b67ffffffffffffffff1690525081516116d29063ffffffff16826121c3565b82608001516040018181516116e791906121ef565b67ffffffffffffffff16905250506080015163ffffffff43169052565b80545f9063ffffffff640100000000820481169167ffffffffffffffff7001000000000000000000000000000000008204169161174e91680100000000000000009004164361219b565b61175891906121c3565b61176291906121c3565b6001830154610a10919067ffffffffffffffff166121ef565b60605f8460088782848161179157611791612141565b90506020020160208101906117a69190611d7b565b67ffffffffffffffff16901c67ffffffffffffffff16915081600888886001856117d09190612277565b8181106117df576117df612141565b90506020020160208101906117f49190611d7b565b67ffffffffffffffff16901c67ffffffffffffffff166118149190612277565b61181f906001612264565b67ffffffffffffffff81111561183757611837611e69565b604051908082528060200260200182016040528015611860578160200160208202803683370190505b5092505f805f5b83811015611a505789898281811061188157611881612141565b90506020020160208101906118969190611d7b565b9250871561195a5767ffffffffffffffff8084165f908152600689016020908152604091829020825160a081018452815463ffffffff808216835264010000000080830488168487015273ffffffffffffffffffffffffffffffffffffffff6c01000000000000000000000000938490041684880152600185015460ff161515606080860191909152875190810188526002909501549182168552810487169484019490945290920490931691830191909152608081019190915261195a90611b71565b5f8111801561197d57508167ffffffffffffffff168367ffffffffffffffff1611155b15611a01578167ffffffffffffffff168367ffffffffffffffff16036119cf576040517fa5a1ff5d00000000000000000000000000000000000000000000000000000000815260040160405180910390fd5b6040517fdd020e2500000000000000000000000000000000000000000000000000000000815260040160405180910390fd5b66ffffffffffffff600884901c1660ff84166001811b88611a228985612277565b81518110611a3257611a32612141565b60209081029190910101805190911790525083925050600101611867565b5050505094509492505050565b8060600151611a98576040517f95a0cf3300000000000000000000000000000000000000000000000000000000815260040160405180910390fd5b50565b80516020808301516040808501516080860151606087015192515f96611b3996909594910160e09590951b7fffffffff0000000000000000000000000000000000000000000000000000000016855260c093841b7fffffffffffffffff00000000000000000000000000000000000000000000000090811660048701529290931b909116600c8401526014830152151560f81b603482015260350190565b604051602081830303815290604052805190602001209050919050565b5f611b6083611c30565b801561076057506107608383611c93565b60808101515163ffffffff165f03611bb5576040517f961e3e8c00000000000000000000000000000000000000000000000000000000815260040160405180910390fd5b604081015173ffffffffffffffffffffffffffffffffffffffff163314611a985760408082015190517f8907fc6500000000000000000000000000000000000000000000000000000000815233600482015273ffffffffffffffffffffffffffffffffffffffff909116602482015260440160405180910390fd5b5f611c5b827f01ffc9a700000000000000000000000000000000000000000000000000000000611c93565b8015610a105750611c8c827fffffffff00000000000000000000000000000000000000000000000000000000611c93565b1592915050565b604080517fffffffff000000000000000000000000000000000000000000000000000000008316602480830191909152825180830390910181526044909101909152602080820180517bffffffffffffffffffffffffffffffffffffffffffffffffffffffff167f01ffc9a70000000000000000000000000000000000000000000000000000000017815282515f9392849283928392918391908a617530fa92503d91505f519050828015611d49575060208210155b8015611d5457505f81115b979650505050505050565b803567ffffffffffffffff81168114611d76575f80fd5b919050565b5f60208284031215611d8b575f80fd5b61076082611d5f565b5f602080835283518060208501525f5b81811015611dc057858101830151858201604001528201611da4565b505f6040828601015260407fffffffffffffffffffffffffffffffffffffffffffffffffffffffffffffffe0601f8301168501019250505092915050565b803573ffffffffffffffffffffffffffffffffffffffff81168114611d76575f80fd5b5f8083601f840112611e31575f80fd5b50813567ffffffffffffffff811115611e48575f80fd5b6020830191508360208260051b8501011115611e62575f80fd5b9250929050565b7f4e487b71000000000000000000000000000000000000000000000000000000005f52604160045260245ffd5b803563ffffffff81168114611d76575f80fd5b8015158114611a98575f80fd5b8035611d7681611ea9565b5f805f8084860360e0811215611ed5575f80fd5b611ede86611dfe565b9450602086013567ffffffffffffffff80821115611efa575f80fd5b611f0689838a01611e21565b909650945084915060a07fffffffffffffffffffffffffffffffffffffffffffffffffffffffffffffffc084011215611f3d575f80fd5b604051925060a0830191508282108183111715611f81577f4e487b71000000000000000000000000000000000000000000000000000000005f52604160045260245ffd5b508060405250611f9360408701611e96565b8152611fa160608701611d5f565b6020820152611fb260808701611d5f565b6040820152611fc360a08701611eb6565b606082015260c086013560808201528091505092959194509250565b5f805f60408486031215611ff1575f80fd5b611ffa84611dfe565b9250602084013567ffffffffffffffff80821115612016575f80fd5b818601915086601f830112612029575f80fd5b813581811115612037575f80fd5b876020828501011115612048575f80fd5b6020830194508093505050509250925092565b5f805f6060848603121561206d575f80fd5b61207684611dfe565b92506020840135915061208b60408501611dfe565b90509250925092565b5f805f604084860312156120a6575f80fd5b833567ffffffffffffffff8111156120bc575f80fd5b6120c886828701611e21565b909450925061208b905060208501611dfe565b602080825282518282018190525f9190848201906040850190845b8181101561211c57835167ffffffffffffffff16835292840192918401916001016120f6565b50909695505050505050565b5f60208284031215612138575f80fd5b61076082611dfe565b7f4e487b71000000000000000000000000000000000000000000000000000000005f52603260045260245ffd5b7f4e487b71000000000000000000000000000000000000000000000000000000005f52601160045260245ffd5b67ffffffffffffffff8281168282160390808211156121bc576121bc61216e565b5092915050565b67ffffffffffffffff8181168382160280821691908281146121e7576121e761216e565b505092915050565b67ffffffffffffffff8181168382160190808211156121bc576121bc61216e565b8284823760609190911b7fffffffffffffffffffffffffffffffffffffffff000000000000000000000000169101908152601401919050565b5f60208284031215612259575f80fd5b815161076081611ea9565b80820180821115610a1057610a1061216e565b81810381811115610a1057610a1061216e565b5f7fffffffffffffffffffffffffffffffffffffffffffffffffffffffffffffffff82036122ba576122ba61216e565b5060010190565b8082028115828204841417610a1057610a1061216e565b7fffffffffffffffffffffffffffffffffffffffff0000000000000000000000008360601b1681525f60148201835160208086015f5b8381101561233457815167ffffffffffffffff168552938201939082019060010161230e565b5092979650505050505050565b63ffffffff8281168282160390808211156121bc576121bc61216e56fea2646970667358221220910f476629e5755b47c8c027344d5e0283e5d53112d88fa61123d58a321e75e964736f6c63430008180033",
  "linkReferences": {},
  "deployedLinkReferences": {}
}