{
  "_format": "hh-sol-artifact-1",
  "contractName": "BeneficiaryContract",
  "sourceName": "contracts/test/mocks/BeneficiaryContract.sol",
  "abi": [
    {
      "inputs": [
        {
          "internalType": "contract ISSVOperators",
          "name": "_ssvContract",
          "type": "address"
        }
      ],
      "stateMutability": "nonpayable",
      "type": "constructor"
    },
    {
      "inputs": [],
      "name": "registerOperator",
      "outputs": [
        {
          "internalType": "uint64",
          "name": "operatorId",
          "type": "uint64"
        }
      ],
      "stateMutability": "nonpayable",
      "type": "function"
    },
    {
      "inputs": [
        {
          "internalType": "uint64",
          "name": "_operatorId",
          "type": "uint64"
        }
      ],
      "name": "setTargetOperatorId",
      "outputs": [],
      "stateMutability": "nonpayable",
      "type": "function"
    },
    {
      "inputs": [
        {
          "internalType": "uint256",
          "name": "amount",
          "type": "uint256"
        }
      ],
      "name": "withdrawOperatorEarnings",
      "outputs": [],
      "stateMutability": "nonpayable",
      "type": "function"
    }
  ],
  "bytecode": "0x608060405234801561000f575f80fd5b5060405161038838038061038883398101604081905261002e91610052565b5f80546001600160a01b0319166001600160a01b039290921691909117905561007f565b5f60208284031215610062575f80fd5b81516001600160a01b0381168114610078575f80fd5b9392505050565b6102fc8061008c5f395ff3fe608060405234801561000f575f80fd5b506004361061003f575f3560e01c80632acde098146100435780632d8d219b1461006857806342e33184146100ca575b5f80fd5b61004b6100dd565b60405167ffffffffffffffff909116815260200160405180910390f35b6100c8610076366004610272565b5f805467ffffffffffffffff90921674010000000000000000000000000000000000000000027fffffffff0000000000000000ffffffffffffffffffffffffffffffffffffffff909216919091179055565b005b6100c86100d8366004610294565b6101b2565b5f80546040517fc9bbc9fa00000000000000000000000000000000000000000000000000000000815260606004820152600a60648201527f30786361666563616665000000000000000000000000000000000000000000006084820152633b9aca0060248201526044810183905273ffffffffffffffffffffffffffffffffffffffff9091169063c9bbc9fa9060a4016020604051808303815f875af1158015610189573d5f803e3d5ffd5b505050506040513d601f19601f820116820180604052508101906101ad91906102ab565b905090565b5f546040517f35f6376700000000000000000000000000000000000000000000000000000000815274010000000000000000000000000000000000000000820467ffffffffffffffff1660048201526024810183905273ffffffffffffffffffffffffffffffffffffffff909116906335f63767906044015f604051808303815f87803b158015610241575f80fd5b505af1158015610253573d5f803e3d5ffd5b5050505050565b67ffffffffffffffff8116811461026f575f80fd5b50565b5f60208284031215610282575f80fd5b813561028d8161025a565b9392505050565b5f602082840312156102a4575f80fd5b5035919050565b5f602082840312156102bb575f80fd5b815161028d8161025a56fea26469706673582212205e9f3e0d5f109e5341b72a682c08ddba0066948a0decfd1ecd8d8e970086a94264736f6c63430008180033",
  "linkReferences": {},
  "deployedLinkReferences": {}
}