{
  "_format": "hh-sol-artifact-1",
  "contractName": "SSVClusters",
  "sourceName": "contracts/modules/SSVClusters.sol",
  "abi": [
    {
      "inputs": [
        {
          "internalType": "address",
          "name": "contractAddress",
          "type": "address"
        }
      ],
      "name": "AddressIsWhitelistingContract",
      "type": "error"
    },
    {
      "inputs": [],
      "name": "ApprovalNotWithinTimeframe",
      "type": "error"
    },
    {
      "inputs": [],
      "name": "CallerNotOwner",
      "type": "error"
    },
    {
      "inputs": [
        {
          "internalType": "address",
          "name": "caller",
          "type": "address"
        },
        {
          "internalType": "address",
          "name": "owner",
          "type": "address"
        }
      ],
      "name": "CallerNotOwnerWithData",
      "type": "error"
    },
    {
      "inputs": [],
      "name": "CallerNotWhitelisted",
      "type": "error"
    },
    {
      "inputs": [
        {
          "internalType": "uint64",
          "name": "operatorId",
          "type": "uint64"
        }
      ],
      "name": "CallerNotWhitelistedWithData",
      "type": "error"
    },
    {
      "inputs": [],
      "name": "ClusterAlreadyEnabled",
      "type": "error"
    },
    {
      "inputs": [],
      "name": "ClusterDoesNotExists",
      "type": "error"
    },
    {
      "inputs": [],
      "name": "ClusterIsLiquidated",
      "type": "error"
    },
    {
      "inputs": [],
      "name": "ClusterNotLiquidatable",
      "type": "error"
    },
    {
      "inputs": [],
      "name": "EmptyPublicKeysList",
      "type": "error"
    },
    {
      "inputs": [
        {
          "internalType": "uint64",
          "name": "operatorId",
          "type": "uint64"
        }
      ],
      "name": "ExceedValidatorLimit",
      "type": "error"
    },
    {
      "inputs": [
        {
          "internalType": "uint64",
          "name": "operatorId",
          "type": "uint64"
        }
      ],
      "name": "ExceedValidatorLimitWithData",
      "type": "error"
    },
    {
      "inputs": [],
      "name": "FeeExceedsIncreaseLimit",
      "type": "error"
    },
    {
      "inputs": [],
      "name": "FeeIncreaseNotAllowed",
      "type": "error"
    },
    {
      "inputs": [],
      "name": "FeeTooHigh",
      "type": "error"
    },
    {
      "inputs": [],
      "name": "FeeTooLow",
      "type": "error"
    },
    {
      "inputs": [],
      "name": "IncorrectClusterState",
      "type": "error"
    },
    {
      "inputs": [],
      "name": "IncorrectValidatorState",
      "type": "error"
    },
    {
      "inputs": [
        {
          "internalType": "bytes",
          "name": "publicKey",
          "type": "bytes"
        }
      ],
      "name": "IncorrectValidatorStateWithData",
      "type": "error"
    },
    {
      "inputs": [],
      "name": "InsufficientBalance",
      "type": "error"
    },
    {
      "inputs": [],
      "name": "InvalidContractAddress",
      "type": "error"
    },
    {
      "inputs": [],
      "name": "InvalidOperatorIdsLength",
      "type": "error"
    },
    {
      "inputs": [],
      "name": "InvalidPublicKeyLength",
      "type": "error"
    },
    {
      "inputs": [],
      "name": "InvalidWhitelistAddressesLength",
      "type": "error"
    },
    {
      "inputs": [
        {
          "internalType": "address",
          "name": "contractAddress",
          "type": "address"
        }
      ],
      "name": "InvalidWhitelistingContract",
      "type": "error"
    },
    {
      "inputs": [],
      "name": "MaxValueExceeded",
      "type": "error"
    },
    {
      "inputs": [],
      "name": "NewBlockPeriodIsBelowMinimum",
      "type": "error"
    },
    {
      "inputs": [],
      "name": "NoFeeDeclared",
      "type": "error"
    },
    {
      "inputs": [],
      "name": "NotAuthorized",
      "type": "error"
    },
    {
      "inputs": [],
      "name": "OperatorAlreadyExists",
      "type": "error"
    },
    {
      "inputs": [],
      "name": "OperatorDoesNotExist",
      "type": "error"
    },
    {
      "inputs": [],
      "name": "OperatorsListNotUnique",
      "type": "error"
    },
    {
      "inputs": [],
      "name": "PublicKeysSharesLengthMismatch",
      "type": "error"
    },
    {
      "inputs": [],
      "name": "SameFeeChangeNotAllowed",
      "type": "error"
    },
    {
      "inputs": [],
      "name": "TargetModuleDoesNotExist",
      "type": "error"
    },
    {
      "inputs": [
        {
          "internalType": "uint8",
          "name": "moduleId",
          "type": "uint8"
        }
      ],
      "name": "TargetModuleDoesNotExistWithData",
      "type": "error"
    },
    {
      "inputs": [],
      "name": "TokenTransferFailed",
      "type": "error"
    },
    {
      "inputs": [],
      "name": "UnsortedOperatorsList",
      "type": "error"
    },
    {
      "inputs": [],
      "name": "ValidatorAlreadyExists",
      "type": "error"
    },
    {
      "inputs": [
        {
          "internalType": "bytes",
          "name": "publicKey",
          "type": "bytes"
        }
      ],
      "name": "ValidatorAlreadyExistsWithData",
      "type": "error"
    },
    {
      "inputs": [],
      "name": "ValidatorDoesNotExist",
      "type": "error"
    },
    {
      "inputs": [],
      "name": "ZeroAddressNotAllowed",
      "type": "error"
    },
    {
      "anonymous": false,
      "inputs": [
        {
          "indexed": true,
          "internalType": "address",
          "name": "owner",
          "type": "address"
        },
        {
          "indexed": false,
          "internalType": "uint64[]",
          "name": "operatorIds",
          "type": "uint64[]"
        },
        {
          "indexed": false,
          "internalType": "uint256",
          "name": "value",
          "type": "uint256"
        },
        {
          "components": [
            {
              "internalType": "uint32",
              "name": "validatorCount",
              "type": "uint32"
            },
            {
              "internalType": "uint64",
              "name": "networkFeeIndex",
              "type": "uint64"
            },
            {
              "internalType": "uint64",
              "name": "index",
              "type": "uint64"
            },
            {
              "internalType": "bool",
              "name": "active",
              "type": "bool"
            },
            {
              "internalType": "uint256",
              "name": "balance",
              "type": "uint256"
            }
          ],
          "indexed": false,
          "internalType": "struct ISSVNetworkCore.Cluster",
          "name": "cluster",
          "type": "tuple"
        }
      ],
      "name": "ClusterDeposited",
      "type": "event"
    },
    {
      "anonymous": false,
      "inputs": [
        {
          "indexed": true,
          "internalType": "address",
          "name": "owner",
          "type": "address"
        },
        {
          "indexed": false,
          "internalType": "uint64[]",
          "name": "operatorIds",
          "type": "uint64[]"
        },
        {
          "components": [
            {
              "internalType": "uint32",
              "name": "validatorCount",
              "type": "uint32"
            },
            {
              "internalType": "uint64",
              "name": "networkFeeIndex",
              "type": "uint64"
            },
            {
              "internalType": "uint64",
              "name": "index",
              "type": "uint64"
            },
            {
              "internalType": "bool",
              "name": "active",
              "type": "bool"
            },
            {
              "internalType": "uint256",
              "name": "balance",
              "type": "uint256"
            }
          ],
          "indexed": false,
          "internalType": "struct ISSVNetworkCore.Cluster",
          "name": "cluster",
          "type": "tuple"
        }
      ],
      "name": "ClusterLiquidated",
      "type": "event"
    },
    {
      "anonymous": false,
      "inputs": [
        {
          "indexed": true,
          "internalType": "address",
          "name": "owner",
          "type": "address"
        },
        {
          "indexed": false,
          "internalType": "uint64[]",
          "name": "operatorIds",
          "type": "uint64[]"
        },
        {
          "components": [
            {
              "internalType": "uint32",
              "name": "validatorCount",
              "type": "uint32"
            },
            {
              "internalType": "uint64",
              "name": "networkFeeIndex",
              "type": "uint64"
            },
            {
              "internalType": "uint64",
              "name": "index",
              "type": "uint64"
            },
            {
              "internalType": "bool",
              "name": "active",
              "type": "bool"
            },
            {
              "internalType": "uint256",
              "name": "balance",
              "type": "uint256"
            }
          ],
          "indexed": false,
          "internalType": "struct ISSVNetworkCore.Cluster",
          "name": "cluster",
          "type": "tuple"
        }
      ],
      "name": "ClusterReactivated",
      "type": "event"
    },
    {
      "anonymous": false,
      "inputs": [
        {
          "indexed": true,
          "internalType": "address",
          "name": "owner",
          "type": "address"
        },
        {
          "indexed": false,
          "internalType": "uint64[]",
          "name": "operatorIds",
          "type": "uint64[]"
        },
        {
          "indexed": false,
          "internalType": "uint256",
          "name": "value",
          "type": "uint256"
        },
        {
          "components": [
            {
              "internalType": "uint32",
              "name": "validatorCount",
              "type": "uint32"
            },
            {
              "internalType": "uint64",
              "name": "networkFeeIndex",
              "type": "uint64"
            },
            {
              "internalType": "uint64",
              "name": "index",
              "type": "uint64"
            },
            {
              "internalType": "bool",
              "name": "active",
              "type": "bool"
            },
            {
              "internalType": "uint256",
              "name": "balance",
              "type": "uint256"
            }
          ],
          "indexed": false,
          "internalType": "struct ISSVNetworkCore.Cluster",
          "name": "cluster",
          "type": "tuple"
        }
      ],
      "name": "ClusterWithdrawn",
      "type": "event"
    },
    {
      "anonymous": false,
      "inputs": [
        {
          "indexed": true,
          "internalType": "address",
          "name": "owner",
          "type": "address"
        },
        {
          "indexed": false,
          "internalType": "uint64[]",
          "name": "operatorIds",
          "type": "uint64[]"
        },
        {
          "indexed": false,
          "internalType": "bytes",
          "name": "publicKey",
          "type": "bytes"
        },
        {
          "indexed": false,
          "internalType": "bytes",
          "name": "shares",
          "type": "bytes"
        },
        {
          "components": [
            {
              "internalType": "uint32",
              "name": "validatorCount",
              "type": "uint32"
            },
            {
              "internalType": "uint64",
              "name": "networkFeeIndex",
              "type": "uint64"
            },
            {
              "internalType": "uint64",
              "name": "index",
              "type": "uint64"
            },
            {
              "internalType": "bool",
              "name": "active",
              "type": "bool"
            },
            {
              "internalType": "uint256",
              "name": "balance",
              "type": "uint256"
            }
          ],
          "indexed": false,
          "internalType": "struct ISSVNetworkCore.Cluster",
          "name": "cluster",
          "type": "tuple"
        }
      ],
      "name": "ValidatorAdded",
      "type": "event"
    },
    {
      "anonymous": false,
      "inputs": [
        {
          "indexed": true,
          "internalType": "address",
          "name": "owner",
          "type": "address"
        },
        {
          "indexed": false,
          "internalType": "uint64[]",
          "name": "operatorIds",
          "type": "uint64[]"
        },
        {
          "indexed": false,
          "internalType": "bytes",
          "name": "publicKey",
          "type": "bytes"
        }
      ],
      "name": "ValidatorExited",
      "type": "event"
    },
    {
      "anonymous": false,
      "inputs": [
        {
          "indexed": true,
          "internalType": "address",
          "name": "owner",
          "type": "address"
        },
        {
          "indexed": false,
          "internalType": "uint64[]",
          "name": "operatorIds",
          "type": "uint64[]"
        },
        {
          "indexed": false,
          "internalType": "bytes",
          "name": "publicKey",
          "type": "bytes"
        },
        {
          "components": [
            {
              "internalType": "uint32",
              "name": "validatorCount",
              "type": "uint32"
            },
            {
              "internalType": "uint64",
              "name": "networkFeeIndex",
              "type": "uint64"
            },
            {
              "internalType": "uint64",
              "name": "index",
              "type": "uint64"
            },
            {
              "internalType": "bool",
              "name": "active",
              "type": "bool"
            },
            {
              "internalType": "uint256",
              "name": "balance",
              "type": "uint256"
            }
          ],
          "indexed": false,
          "internalType": "struct ISSVNetworkCore.Cluster",
          "name": "cluster",
          "type": "tuple"
        }
      ],
      "name": "ValidatorRemoved",
      "type": "event"
    },
    {
      "inputs": [
        {
          "internalType": "bytes[]",
          "name": "publicKeys",
          "type": "bytes[]"
        },
        {
          "internalType": "uint64[]",
          "name": "operatorIds",
          "type": "uint64[]"
        }
      ],
      "name": "bulkExitValidator",
      "outputs": [],
      "stateMutability": "nonpayable",
      "type": "function"
    },
    {
      "inputs": [
        {
          "internalType": "bytes[]",
          "name": "publicKeys",
          "type": "bytes[]"
        },
        {
          "internalType": "uint64[]",
          "name": "operatorIds",
          "type": "uint64[]"
        },
        {
          "internalType": "bytes[]",
          "name": "sharesData",
          "type": "bytes[]"
        },
        {
          "internalType": "uint256",
          "name": "amount",
          "type": "uint256"
        },
        {
          "components": [
            {
              "internalType": "uint32",
              "name": "validatorCount",
              "type": "uint32"
            },
            {
              "internalType": "uint64",
              "name": "networkFeeIndex",
              "type": "uint64"
            },
            {
              "internalType": "uint64",
              "name": "index",
              "type": "uint64"
            },
            {
              "internalType": "bool",
              "name": "active",
              "type": "bool"
            },
            {
              "internalType": "uint256",
              "name": "balance",
              "type": "uint256"
            }
          ],
          "internalType": "struct ISSVNetworkCore.Cluster",
          "name": "cluster",
          "type": "tuple"
        }
      ],
      "name": "bulkRegisterValidator",
      "outputs": [],
      "stateMutability": "nonpayable",
      "type": "function"
    },
    {
      "inputs": [
        {
          "internalType": "bytes[]",
          "name": "publicKeys",
          "type": "bytes[]"
        },
        {
          "internalType": "uint64[]",
          "name": "operatorIds",
          "type": "uint64[]"
        },
        {
          "components": [
            {
              "internalType": "uint32",
              "name": "validatorCount",
              "type": "uint32"
            },
            {
              "internalType": "uint64",
              "name": "networkFeeIndex",
              "type": "uint64"
            },
            {
              "internalType": "uint64",
              "name": "index",
              "type": "uint64"
            },
            {
              "internalType": "bool",
              "name": "active",
              "type": "bool"
            },
            {
              "internalType": "uint256",
              "name": "balance",
              "type": "uint256"
            }
          ],
          "internalType": "struct ISSVNetworkCore.Cluster",
          "name": "cluster",
          "type": "tuple"
        }
      ],
      "name": "bulkRemoveValidator",
      "outputs": [],
      "stateMutability": "nonpayable",
      "type": "function"
    },
    {
      "inputs": [
        {
          "internalType": "address",
          "name": "clusterOwner",
          "type": "address"
        },
        {
          "internalType": "uint64[]",
          "name": "operatorIds",
          "type": "uint64[]"
        },
        {
          "internalType": "uint256",
          "name": "amount",
          "type": "uint256"
        },
        {
          "components": [
            {
              "internalType": "uint32",
              "name": "validatorCount",
              "type": "uint32"
            },
            {
              "internalType": "uint64",
              "name": "networkFeeIndex",
              "type": "uint64"
            },
            {
              "internalType": "uint64",
              "name": "index",
              "type": "uint64"
            },
            {
              "internalType": "bool",
              "name": "active",
              "type": "bool"
            },
            {
              "internalType": "uint256",
              "name": "balance",
              "type": "uint256"
            }
          ],
          "internalType": "struct ISSVNetworkCore.Cluster",
          "name": "cluster",
          "type": "tuple"
        }
      ],
      "name": "deposit",
      "outputs": [],
      "stateMutability": "nonpayable",
      "type": "function"
    },
    {
      "inputs": [
        {
          "internalType": "bytes",
          "name": "publicKey",
          "type": "bytes"
        },
        {
          "internalType": "uint64[]",
          "name": "operatorIds",
          "type": "uint64[]"
        }
      ],
      "name": "exitValidator",
      "outputs": [],
      "stateMutability": "nonpayable",
      "type": "function"
    },
    {
      "inputs": [
        {
          "internalType": "address",
          "name": "clusterOwner",
          "type": "address"
        },
        {
          "internalType": "uint64[]",
          "name": "operatorIds",
          "type": "uint64[]"
        },
        {
          "components": [
            {
              "internalType": "uint32",
              "name": "validatorCount",
              "type": "uint32"
            },
            {
              "internalType": "uint64",
              "name": "networkFeeIndex",
              "type": "uint64"
            },
            {
              "internalType": "uint64",
              "name": "index",
              "type": "uint64"
            },
            {
              "internalType": "bool",
              "name": "active",
              "type": "bool"
            },
            {
              "internalType": "uint256",
              "name": "balance",
              "type": "uint256"
            }
          ],
          "internalType": "struct ISSVNetworkCore.Cluster",
          "name": "cluster",
          "type": "tuple"
        }
      ],
      "name": "liquidate",
      "outputs": [],
      "stateMutability": "nonpayable",
      "type": "function"
    },
    {
      "inputs": [
        {
          "internalType": "uint64[]",
          "name": "operatorIds",
          "type": "uint64[]"
        },
        {
          "internalType": "uint256",
          "name": "amount",
          "type": "uint256"
        },
        {
          "components": [
            {
              "internalType": "uint32",
              "name": "validatorCount",
              "type": "uint32"
            },
            {
              "internalType": "uint64",
              "name": "networkFeeIndex",
              "type": "uint64"
            },
            {
              "internalType": "uint64",
              "name": "index",
              "type": "uint64"
            },
            {
              "internalType": "bool",
              "name": "active",
              "type": "bool"
            },
            {
              "internalType": "uint256",
              "name": "balance",
              "type": "uint256"
            }
          ],
          "internalType": "struct ISSVNetworkCore.Cluster",
          "name": "cluster",
          "type": "tuple"
        }
      ],
      "name": "reactivate",
      "outputs": [],
      "stateMutability": "nonpayable",
      "type": "function"
    },
    {
      "inputs": [
        {
          "internalType": "bytes",
          "name": "publicKey",
          "type": "bytes"
        },
        {
          "internalType": "uint64[]",
          "name": "operatorIds",
          "type": "uint64[]"
        },
        {
          "internalType": "bytes",
          "name": "sharesData",
          "type": "bytes"
        },
        {
          "internalType": "uint256",
          "name": "amount",
          "type": "uint256"
        },
        {
          "components": [
            {
              "internalType": "uint32",
              "name": "validatorCount",
              "type": "uint32"
            },
            {
              "internalType": "uint64",
              "name": "networkFeeIndex",
              "type": "uint64"
            },
            {
              "internalType": "uint64",
              "name": "index",
              "type": "uint64"
            },
            {
              "internalType": "bool",
              "name": "active",
              "type": "bool"
            },
            {
              "internalType": "uint256",
              "name": "balance",
              "type": "uint256"
            }
          ],
          "internalType": "struct ISSVNetworkCore.Cluster",
          "name": "cluster",
          "type": "tuple"
        }
      ],
      "name": "registerValidator",
      "outputs": [],
      "stateMutability": "nonpayable",
      "type": "function"
    },
    {
      "inputs": [
        {
          "internalType": "bytes",
          "name": "publicKey",
          "type": "bytes"
        },
        {
          "internalType": "uint64[]",
          "name": "operatorIds",
          "type": "uint64[]"
        },
        {
          "components": [
            {
              "internalType": "uint32",
              "name": "validatorCount",
              "type": "uint32"
            },
            {
              "internalType": "uint64",
              "name": "networkFeeIndex",
              "type": "uint64"
            },
            {
              "internalType": "uint64",
              "name": "index",
              "type": "uint64"
            },
            {
              "internalType": "bool",
              "name": "active",
              "type": "bool"
            },
            {
              "internalType": "uint256",
              "name": "balance",
              "type": "uint256"
            }
          ],
          "internalType": "struct ISSVNetworkCore.Cluster",
          "name": "cluster",
          "type": "tuple"
        }
      ],
      "name": "removeValidator",
      "outputs": [],
      "stateMutability": "nonpayable",
      "type": "function"
    },
    {
      "inputs": [
        {
          "internalType": "uint64[]",
          "name": "operatorIds",
          "type": "uint64[]"
        },
        {
          "internalType": "uint256",
          "name": "amount",
          "type": "uint256"
        },
        {
          "components": [
            {
              "internalType": "uint32",
              "name": "validatorCount",
              "type": "uint32"
            },
            {
              "internalType": "uint64",
              "name": "networkFeeIndex",
              "type": "uint64"
            },
            {
              "internalType": "uint64",
              "name": "index",
              "type": "uint64"
            },
            {
              "internalType": "bool",
              "name": "active",
              "type": "bool"
            },
            {
              "internalType": "uint256",
              "name": "balance",
              "type": "uint256"
            }
          ],
          "internalType": "struct ISSVNetworkCore.Cluster",
          "name": "cluster",
          "type": "tuple"
        }
      ],
      "name": "withdraw",
      "outputs": [],
      "stateMutability": "nonpayable",
      "type": "function"
    }
  ],
  "bytecode": "0x608060405234801561000f575f80fd5b506137788061001d5f395ff3fe608060405234801561000f575f80fd5b50600436106100b9575f3560e01c80635aed114211610072578063686e682c11610058578063686e682c14610144578063bc26e7e514610157578063bf0f2fb21461016a575f80fd5b80635aed11421461011e5780635fec6dd014610131575f80fd5b806322f18bf5116100a257806322f18bf5146100e557806332afd02f146100f85780633877322b1461010b575f80fd5b806306e8fb9c146100bd57806312b3fc19146100d2575b5f80fd5b6100d06100cb366004612b5c565b61017d565b005b6100d06100e0366004612c04565b610283565b6100d06100f3366004612cbb565b610459565b6100d0610106366004612e2a565b61063d565b6100d0610119366004612e91565b61081c565b6100d061012c366004612ec7565b61095a565b6100d061013f366004612efd565b610b84565b6100d0610152366004612efd565b610da7565b6100d0610165366004612f6f565b611081565b6100d0610178366004612fda565b611164565b5f610186611372565b90505f6101916113a5565b905061019c876113d2565b6101de89898080601f0160208091040260200160405190810160405280939291908181526020018383808284375f920191909152508b92508691506114349050565b5f6101ea848985611520565b905084846080018181516101fe919061305e565b90525061021084898360018787611645565b841561021f5761021f85611732565b3373ffffffffffffffffffffffffffffffffffffffff167f48a3ea0796746043948f6341d17ff8200937b99262a0b48c2663b951ed7114e5898c8c8b8b8a60405161026f969594939291906130de565b60405180910390a250505050505050505050565b5f61028c611372565b90505f61029b83338685611812565b90505f6102a7856118d5565b90505f8787336040516020016102bf9392919061316e565b60408051601f1981840301815291815281516020928301205f818152928790529120549091508061031c576040517fe51315d200000000000000000000000000000000000000000000000000000000815260040160405180910390fd5b7ffffffffffffffffffffffffffffffffffffffffffffffffffffffffffffffffe811683146103845788886040517f8930793800000000000000000000000000000000000000000000000000000000815260040161037b9291906131a7565b60405180910390fd5b5f828152602086905260408120556060860151156103dd575f6103a56113a5565b90505f6103b6895f60018a8661192b565b5090506103ce816103c684611ac6565b8a9190611b35565b6103da825f6001611b5a565b50505b855186906103ea906131c2565b63ffffffff1690526103fb86611c31565b5f85815260018701602052604090819020919091555133907fccf4370403e5fbbde0cd3f13426479dcd8a5916b05db424b7a2c04978cf8ce6e90610446908a908d908d908c906131ff565b60405180910390a2505050505050505050565b85515f819003610495576040517fdf83e67900000000000000000000000000000000000000000000000000000000815260040160405180910390fd5b8084146104ce576040517f9ad467b800000000000000000000000000000000000000000000000000000000815260040160405180910390fd5b5f6104d7611372565b90505f6104e26113a5565b90506104ed886113d2565b5f5b838110156105235761051b8a828151811061050c5761050c613277565b60200260200101518a85611434565b6001016104ef565b505f610530858a85611520565b90508585608001818151610544919061305e565b905250610555858a83878787611645565b85156105645761056486611732565b5f5b84811015610630575f8b828151811061058157610581613277565b602002602001015190505f8a8a8481811061059e5761059e613277565b90506020028101906105b091906132a4565b8080601f0160208091040260200160405190810160405280939291908181526020018383808284375f920191909152505060405192935033927f48a3ea0796746043948f6341d17ff8200937b99262a0b48c2663b951ed7114e5925061061e91508f90869086908e90613352565b60405180910390a25050600101610566565b5050505050505050505050565b5f839003610677576040517fe51315d200000000000000000000000000000000000000000000000000000000815260040160405180910390fd5b5f6106b38383808060200260200160405190810160405280939291908181526020018383602002808284375f920191909152506118d592505050565b90505f5b84811015610814576107506106ca611372565b5f8888858181106106dd576106dd613277565b90506020028101906106ef91906132a4565b336040516020016107029392919061316e565b6040516020818303038152906040528051906020012081526020019081526020015f2054837ffffffffffffffffffffffffffffffffffffffffffffffffffffffffffffffffe919091161490565b6107ac5785858281811061076657610766613277565b905060200281019061077891906132a4565b6040517f8930793800000000000000000000000000000000000000000000000000000000815260040161037b9291906131a7565b337fb4b20ffb2eb1f020be3df600b2287914f50c07003526d3a9d89a9dd12351828c85858989868181106107e2576107e2613277565b90506020028101906107f491906132a4565b604051610804949392919061341b565b60405180910390a26001016106b7565b505050505050565b6108c6610827611372565b6040515f9061083e9088908890339060200161316e565b6040516020818303038152906040528051906020012081526020019081526020015f205461089d8484808060200260200160405190810160405280939291908181526020018383602002808284375f920191909152506118d592505050565b7ffffffffffffffffffffffffffffffffffffffffffffffffffffffffffffffffe919091161490565b6109005783836040517f8930793800000000000000000000000000000000000000000000000000000000815260040161037b9291906131a7565b3373ffffffffffffffffffffffffffffffffffffffff167fb4b20ffb2eb1f020be3df600b2287914f50c07003526d3a9d89a9dd12351828c8383878760405161094c949392919061341b565b60405180910390a250505050565b825f819003610995576040517fe51315d200000000000000000000000000000000000000000000000000000000815260040160405180910390fd5b5f61099e611372565b90505f6109ad84338785611812565b90505f6109b9866118d5565b90505f805f805b87811015610a85578b8b828181106109da576109da613277565b90506020028101906109ec91906132a4565b336040516020016109ff9392919061316e565b60408051808303601f1901815291815281516020928301205f818152928a905291205490945092507ffffffffffffffffffffffffffffffffffffffffffffffffffffffffffffffffe83168514610a62578b8b8281811061076657610766613277565b5f8481526020889052604081205581610a7a81613441565b9250506001016109c0565b50876060015115610acf575f610a996113a5565b90505f610aa98b5f858b8661192b565b509050610ac181610ab984611ac6565b8c9190611b35565b610acc825f85611b5a565b50505b80885f01818151610ae09190613463565b63ffffffff16905250610af288611c31565b5f8681526001880160205260408120919091555b87811015610b7657337fccf4370403e5fbbde0cd3f13426479dcd8a5916b05db424b7a2c04978cf8ce6e8b8e8e85818110610b4357610b43613277565b9050602002810190610b5591906132a4565b8d604051610b6694939291906131ff565b60405180910390a2600101610b06565b505050505050505050505050565b5f610b8d611372565b90505f610bd1338787808060200260200160405190810160405280939291908181526020018383602002808284375f92019190915250889493925087915050611812565b9050826060015115610c0f576040517f3babafd200000000000000000000000000000000000000000000000000000000815260040160405180910390fd5b5f610c186113a5565b90505f80610c5e8989808060200260200160405190810160405280939291908181526020018383602002808284375f92019190915250508951600192509050888761192b565b915091508686608001818151610c74919061305e565b9052506001606087015267ffffffffffffffff82166040870152610c9783611ac6565b67ffffffffffffffff1660208701528551610cb6908490600190611b5a565b82546001840154610cfe918891849167ffffffffffffffff70010000000000000000000000000000000091829004811692680100000000000000008104821692900416611cec565b15610d35576040517ff4d678b800000000000000000000000000000000000000000000000000000000815260040160405180910390fd5b610d3e86611c31565b5f8581526001870160205260409020558615610d5d57610d5d87611732565b3373ffffffffffffffffffffffffffffffffffffffff167fc803f8c01343fcdaf32068f4c283951623ef2b3fa0c547551931356f456b68598a8a8960405161044693929190613487565b5f610db0611372565b90505f610df4338787808060200260200160405190810160405280939291908181526020018383602002808284375f92019190915250889493925087915050611812565b9050610dff83611d71565b5f610e086113a5565b90505f846060015115610f10575f87815b81811015610ef7575f610e2a611372565b6006015f8d8d85818110610e4057610e40613277565b9050602002016020810190610e5591906134ec565b67ffffffffffffffff908116825260208201929092526040015f2080546002820154919350640100000000900490911690610e969063ffffffff1643613505565b610ea09190613526565b6002820154610ec19190640100000000900467ffffffffffffffff16613552565b610ecb9085613552565b8154909450610eec90640100000000900467ffffffffffffffff1686613552565b945050600101610e19565b5050610f0e81610f0685611ac6565b889190611b35565b505b8585608001511015610f4e576040517ff4d678b800000000000000000000000000000000000000000000000000000000815260040160405180910390fd5b8585608001818151610f609190613573565b90525060608501518015610f7a5750845163ffffffff1615155b8015610fc9575081546001830154610fc9918791849167ffffffffffffffff70010000000000000000000000000000000091829004811692680100000000000000008104821692900416611cec565b15611000576040517ff4d678b800000000000000000000000000000000000000000000000000000000815260040160405180910390fd5b61100985611c31565b5f8481526001860160205260409020556110233387611dac565b3373ffffffffffffffffffffffffffffffffffffffff167f39d1320bbda24947e77f3560661323384aa0a1cb9d5e040e617e5cbf50b6dbe08989898960405161106f9493929190613586565b60405180910390a25050505050505050565b5f61108a611372565b90505f6110ce878787808060200260200160405190810160405280939291908181526020018383602002808284375f92019190915250889493925087915050611812565b905083836080018181516110e2919061305e565b9052506110ee83611c31565b5f82815260018401602052604090205561110784611732565b8673ffffffffffffffffffffffffffffffffffffffff167f2bac1912f2481d12f0df08647c06bee174967c62d3a03cbc078eb215dc1bd9a2878787876040516111539493929190613586565b60405180910390a250505050505050565b5f61116d611372565b90505f6111b1868686808060200260200160405190810160405280939291908181526020018383602002808284375f92019190915250889493925087915050611812565b90506111bc83611d71565b5f6111c56113a5565b90505f8061120a8888808060200260200160405190810160405280939291908181526020018383602002808284375f9201829052508b5190935091508990508761192b565b915091506112238261121b85611ac6565b889190611e85565b5f73ffffffffffffffffffffffffffffffffffffffff8a16331480159061128f57508354600185015461128d918991859167ffffffffffffffff70010000000000000000000000000000000091829004811692680100000000000000008104821692900416611cec565b155b156112c6576040517f60300a8d00000000000000000000000000000000000000000000000000000000815260040160405180910390fd5b86516112d59085905f90611b5a565b6080870151156112eb57506080860180515f9091525b5f6040880181905260208801819052606088015261130887611c31565b5f8681526001880160205260409020558015611328576113283382611dac565b8973ffffffffffffffffffffffffffffffffffffffff167f1fce24c373e07f89214e9187598635036111dbb363e99f4ce498488cdc66e6888a8a8a60405161026f93929190613487565b5f8061139f60017fd56c4f4aab8ca22f9fde432777379f436593c6027698a6995e2daea890bed105613573565b92915050565b5f8061139f60017f0f1d85405047bdb6b0a60e27531f52a1f7a948613527b9b83a7552558207aa16613573565b805160048110806113e35750600d81115b806113f957506113f46003826135f1565b600114155b15611430576040517f3818622400000000000000000000000000000000000000000000000000000000815260040160405180910390fd5b5050565b825160301461146f576040517f637297a400000000000000000000000000000000000000000000000000000000815260040160405180910390fd5b5f8333604051602001611483929190613629565b60408051601f1981840301815291815281516020928301205f81815292859052912054909150156114e257836040517f388e799900000000000000000000000000000000000000000000000000000000815260040161037b9190613672565b6001836040516020016114f591906136b2565b60408051601f1981840301815291815281516020928301205f94855294909152909120911790555050565b5f33836040516020016115349291906136bd565b60408051601f1981840301815291815281516020928301205f81815260018601909352912054909150806115f357845163ffffffff161515806115845750602085015167ffffffffffffffff1615155b8061159c5750604085015167ffffffffffffffff1615155b806115aa5750608085015115155b806115b757508460600151155b156115ee576040517f12e04c8700000000000000000000000000000000000000000000000000000000815260040160405180910390fd5b61163d565b6115fc85611c31565b8114611634576040517f12e04c8700000000000000000000000000000000000000000000000000000000815260040160405180910390fd5b61163d85611d71565b509392505050565b5f8061165387868686611f32565b9150915061166a888361166586611ac6565b611b35565b61167683600187611b5a565b84885f0181815161168791906136f3565b63ffffffff16905250825460018401546116d8918a91849167ffffffffffffffff70010000000000000000000000000000000091829004811692680100000000000000008104821692900416611cec565b1561170f576040517ff4d678b800000000000000000000000000000000000000000000000000000000815260040160405180910390fd5b61171888611c31565b5f9687526001909401602052505060409093205550505050565b61173a611372565b600701546040517f23b872dd0000000000000000000000000000000000000000000000000000000081523360048201523060248201526044810183905273ffffffffffffffffffffffffffffffffffffffff909116906323b872dd906064016020604051808303815f875af11580156117b5573d5f803e3d5ffd5b505050506040513d601f19601f820116820180604052508101906117d99190613710565b61180f576040517f045c4b0200000000000000000000000000000000000000000000000000000000815260040160405180910390fd5b50565b5f83836040516020016118269291906136bd565b6040516020818303038152906040528051906020012090505f61184886611c31565b5f83815260018501602052604090205490915080611892576040517f185e2b1600000000000000000000000000000000000000000000000000000000815260040160405180910390fd5b8181146118cb576040517f12e04c8700000000000000000000000000000000000000000000000000000000815260040160405180910390fd5b5050949350505050565b6040515f907ffffffffffffffffffffffffffffffffffffffffffffffffffffffffffffffffe90819061190c9085906020016136b2565b6040516020818303038152906040528051906020012016915050919050565b84515f908190815b81811015611aba575f89828151811061194e5761194e613277565b60209081029190910181015167ffffffffffffffff81165f90815260068a01909252604090912060028101549192509063ffffffff1615611a8a5761199281612527565b896119d3578054899082905f906119b090849063ffffffff16613463565b92506101000a81548163ffffffff021916908363ffffffff160217905550611a69565b8654815463ffffffff6c010000000000000000000000009092048216918b9184915f91611a02918591166136f3565b92506101000a81548163ffffffff021916908363ffffffff160217905563ffffffff161115611a69576040517f639f585100000000000000000000000000000000000000000000000000000000815267ffffffffffffffff8316600482015260240161037b565b8054611a8790640100000000900467ffffffffffffffff1686613552565b94505b6002810154611aab90640100000000900467ffffffffffffffff1687613552565b95505050806001019050611933565b50509550959350505050565b80545f9067ffffffffffffffff70010000000000000000000000000000000082041690611af99063ffffffff1643613573565b611b039190613526565b825461139f91907801000000000000000000000000000000000000000000000000900467ffffffffffffffff16613552565b611b40838383611e85565b67ffffffffffffffff918216604084015216602090910152565b611b638361264b565b81611bad57825481908490600490611b8a908490640100000000900463ffffffff16613463565b92506101000a81548163ffffffff021916908363ffffffff160217905550505050565b825463ffffffff9082908590600490611bd1908490640100000000900486166136f3565b92506101000a81548163ffffffff021916908363ffffffff160217905563ffffffff161115611c2c576040517f91aa301700000000000000000000000000000000000000000000000000000000815260040160405180910390fd5b505050565b80516020808301516040808501516080860151606087015192515f96611ccf96909594910160e09590951b7fffffffff0000000000000000000000000000000000000000000000000000000016855260c093841b7fffffffffffffffff00000000000000000000000000000000000000000000000090811660048701529290931b909116600c8401526014830152151560f81b603482015260350190565b604051602081830303815290604052805190602001209050919050565b84515f9063ffffffff1615611d6857611d0e8267ffffffffffffffff166126ca565b86608001511015611d2157506001611d68565b85515f9063ffffffff16611d358688613552565b611d3f9086613526565b611d499190613526565b9050611d5e8167ffffffffffffffff166126ca565b8760800151109150505b95945050505050565b806060015161180f576040517f95a0cf3300000000000000000000000000000000000000000000000000000000815260040160405180910390fd5b611db4611372565b600701546040517fa9059cbb00000000000000000000000000000000000000000000000000000000815273ffffffffffffffffffffffffffffffffffffffff8481166004830152602482018490529091169063a9059cbb906044016020604051808303815f875af1158015611e2b573d5f803e3d5ffd5b505050506040513d601f19601f82011682018060405250810190611e4f9190613710565b611430576040517f045c4b0200000000000000000000000000000000000000000000000000000000815260040160405180910390fd5b825160208401515f9163ffffffff1690611e9f9084613505565b611ea99190613526565b90505f81855f015163ffffffff16866040015186611ec79190613505565b611ed19190613526565b611edb9190613552565b90508460800151611ef58267ffffffffffffffff166126ca565b11611f2157611f0d8167ffffffffffffffff166126ca565b8560800151611f1c9190613573565b611f23565b5f5b60809095019490945250505050565b83515f908190817fffffffffffffffffffffffffffffffffffffffffffffffffffffffffffffffff81805b84811015612519575f8b8281518110611f7857611f78613277565b6020026020010151905085826001611f90919061305e565b1015612077578b611fa283600161305e565b81518110611fb257611fb2613277565b602002602001015167ffffffffffffffff168167ffffffffffffffff161115612007576040517fdd020e2500000000000000000000000000000000000000000000000000000000815260040160405180910390fd5b8b61201383600161305e565b8151811061202357612023613277565b602002602001015167ffffffffffffffff168167ffffffffffffffff1603612077576040517fa5a1ff5d00000000000000000000000000000000000000000000000000000000815260040160405180910390fd5b67ffffffffffffffff8082165f90815260068c0160209081526040808320815160a081018352815463ffffffff808216835264010000000080830489168488015273ffffffffffffffffffffffffffffffffffffffff6c01000000000000000000000000938490041684870152600185015460ff1615156060808601919091528651908101875260029095015480831686529081048916968501969096529404909516918101919091526080840181905251169003612162576040517f961e3e8c00000000000000000000000000000000000000000000000000000000815260040160405180910390fd5b8060600151156123385766ffffffffffffff600883901c1695508486146121a557335f90815260098c016020908152604080832089845290915290205486955093505b600160ff83161b84165f036123385767ffffffffffffffff82165f90815260048c01602052604090205473ffffffffffffffffffffffffffffffffffffffff1680612228576040517fb7f529fe00000000000000000000000000000000000000000000000000000000815267ffffffffffffffff8416600482015260240161037b565b73ffffffffffffffffffffffffffffffffffffffff811633146123365761224e816126e2565b15806122f357506040517f830639ac00000000000000000000000000000000000000000000000000000000815233600482015267ffffffffffffffff8416602482015273ffffffffffffffffffffffffffffffffffffffff82169063830639ac90604401602060405180830381865afa1580156122cd573d5f803e3d5ffd5b505050506040513d601f19601f820116820180604052508101906122f19190613710565b155b15612336576040517fb7f529fe00000000000000000000000000000000000000000000000000000000815267ffffffffffffffff8416600482015260240161037b565b505b6123418161270d565b895481516c0100000000000000000000000090910463ffffffff16908d90839061236c9083906136f3565b63ffffffff1690819052919091111590506123bf576040517f639f585100000000000000000000000000000000000000000000000000000000815267ffffffffffffffff8316600482015260240161037b565b60208101516123ce9089613552565b9750806080015160200151896123e49190613552565b67ffffffffffffffff9283165f90815260068d01602090815260409182902084518154868401518786015163ffffffff9384167fffffffffffffffffffffffffffffffffffffffff00000000000000000000000093841617640100000000928b168302176bffffffffffffffffffffffff166c0100000000000000000000000073ffffffffffffffffffffffffffffffffffffffff90921682021785556060890151600180870180547fffffffffffffffffffffffffffffffffffffffffffffffffffffffffffffff001692151592909217909155608090990151805160029096018054978201519190980151959094169590921694909417918816909302177fffffffffffffffffffffffff0000000000000000ffffffffffffffffffffffff169516029390931790925590975001611f5d565b505050505094509492505050565b805460028201545f91640100000000900467ffffffffffffffff16906125539063ffffffff1643613463565b63ffffffff166125639190613526565b600283018054919250829160049061258e908490640100000000900467ffffffffffffffff16613552565b825467ffffffffffffffff9182166101009390930a92830291909202199091161790555081546125c49063ffffffff1682613526565b600283018054600c906125f29084906c01000000000000000000000000900467ffffffffffffffff16613552565b82546101009290920a67ffffffffffffffff818102199093169190921691909102179055505060020180547fffffffffffffffffffffffffffffffffffffffffffffffffffffffff00000000164363ffffffff16179055565b6126548161279e565b6001820180547fffffffffffffffffffffffffffffffffffffffffffffffff00000000000000001667ffffffffffffffff9290921691909117905580547fffffffffffffffffffffffffffffffffffffffff00000000ffffffffffffffff16680100000000000000004363ffffffff1602179055565b5f61139f6298968067ffffffffffffffff841661372b565b5f61139f827f830639ac00000000000000000000000000000000000000000000000000000000612815565b60208101516080820151515f91906127259043613463565b63ffffffff166127359190613526565b905080826080015160200181815161274d9190613552565b67ffffffffffffffff16905250815161276c9063ffffffff1682613526565b82608001516040018181516127819190613552565b67ffffffffffffffff16905250506080015163ffffffff43169052565b80545f9063ffffffff640100000000820481169167ffffffffffffffff700100000000000000000000000000000000820416916127e8916801000000000000000090041643613505565b6127f29190613526565b6127fc9190613526565b600183015461139f919067ffffffffffffffff16613552565b5f61281f83612837565b80156128305750612830838361289a565b9392505050565b5f612862827f01ffc9a70000000000000000000000000000000000000000000000000000000061289a565b801561139f5750612893827fffffffff0000000000000000000000000000000000000000000000000000000061289a565b1592915050565b604080517fffffffff000000000000000000000000000000000000000000000000000000008316602480830191909152825180830390910181526044909101909152602080820180517bffffffffffffffffffffffffffffffffffffffffffffffffffffffff167f01ffc9a70000000000000000000000000000000000000000000000000000000017815282515f9392849283928392918391908a617530fa92503d91505f519050828015612950575060208210155b801561295b57505f81115b979650505050505050565b5f8083601f840112612976575f80fd5b50813567ffffffffffffffff81111561298d575f80fd5b6020830191508360208285010111156129a4575f80fd5b9250929050565b7f4e487b71000000000000000000000000000000000000000000000000000000005f52604160045260245ffd5b604051601f8201601f1916810167ffffffffffffffff81118282101715612a0157612a016129ab565b604052919050565b5f67ffffffffffffffff821115612a2257612a226129ab565b5060051b60200190565b803567ffffffffffffffff81168114612a43575f80fd5b919050565b5f82601f830112612a57575f80fd5b81356020612a6c612a6783612a09565b6129d8565b8083825260208201915060208460051b870101935086841115612a8d575f80fd5b602086015b84811015612ab057612aa381612a2c565b8352918301918301612a92565b509695505050505050565b801515811461180f575f80fd5b5f60a08284031215612ad8575f80fd5b60405160a0810181811067ffffffffffffffff82111715612afb57612afb6129ab565b604052905080823563ffffffff81168114612b14575f80fd5b8152612b2260208401612a2c565b6020820152612b3360408401612a2c565b60408201526060830135612b4681612abb565b6060820152608092830135920191909152919050565b5f805f805f805f610120888a031215612b73575f80fd5b873567ffffffffffffffff80821115612b8a575f80fd5b612b968b838c01612966565b909950975060208a0135915080821115612bae575f80fd5b612bba8b838c01612a48565b965060408a0135915080821115612bcf575f80fd5b50612bdc8a828b01612966565b90955093505060608801359150612bf68960808a01612ac8565b905092959891949750929550565b5f805f8060e08587031215612c17575f80fd5b843567ffffffffffffffff80821115612c2e575f80fd5b612c3a88838901612966565b90965094506020870135915080821115612c52575f80fd5b50612c5f87828801612a48565b925050612c6f8660408701612ac8565b905092959194509250565b5f8083601f840112612c8a575f80fd5b50813567ffffffffffffffff811115612ca1575f80fd5b6020830191508360208260051b85010111156129a4575f80fd5b5f805f805f806101208789031215612cd1575f80fd5b67ffffffffffffffff8088351115612ce7575f80fd5b8735880189601f820112612cf9575f80fd5b612d06612a678235612a09565b81358082526020808301929160051b8401018c1015612d23575f80fd5b602083015b6020843560051b850101811015612dbd578481351115612d46575f80fd5b803584018d603f820112612d58575f80fd5b602081013586811115612d6d57612d6d6129ab565b612d806020601f19601f840116016129d8565b8181528f6040838501011115612d94575f80fd5b816040840160208301375f60208383010152808652505050602083019250602081019050612d28565b50985050506020880135811015612dd2575f80fd5b612de28960208a01358a01612a48565b95508060408901351115612df4575f80fd5b50612e058860408901358901612c7a565b909450925060608701359150612e1e8860808901612ac8565b90509295509295509295565b5f805f8060408587031215612e3d575f80fd5b843567ffffffffffffffff80821115612e54575f80fd5b612e6088838901612c7a565b90965094506020870135915080821115612e78575f80fd5b50612e8587828801612c7a565b95989497509550505050565b5f805f8060408587031215612ea4575f80fd5b843567ffffffffffffffff80821115612ebb575f80fd5b612e6088838901612966565b5f805f8060e08587031215612eda575f80fd5b843567ffffffffffffffff80821115612ef1575f80fd5b612c3a88838901612c7a565b5f805f8060e08587031215612f10575f80fd5b843567ffffffffffffffff811115612f26575f80fd5b612f3287828801612c7a565b90955093505060208501359150612c6f8660408701612ac8565b803573ffffffffffffffffffffffffffffffffffffffff81168114612a43575f80fd5b5f805f805f6101008688031215612f84575f80fd5b612f8d86612f4c565b9450602086013567ffffffffffffffff811115612fa8575f80fd5b612fb488828901612c7a565b90955093505060408601359150612fce8760608801612ac8565b90509295509295909350565b5f805f8060e08587031215612fed575f80fd5b612ff685612f4c565b9350602085013567ffffffffffffffff811115613011575f80fd5b61301d87828801612c7a565b9094509250612c6f90508660408701612ac8565b7f4e487b71000000000000000000000000000000000000000000000000000000005f52601160045260245ffd5b8082018082111561139f5761139f613031565b5f815180845260208085019450602084015f5b838110156130aa57815167ffffffffffffffff1687529582019590820190600101613084565b509495945050505050565b81835281816020850137505f602082840101525f6020601f19601f840116840101905092915050565b5f6101008083526130f18184018a613071565b9050828103602084015261310681888a6130b5565b9050828103604084015261311b8186886130b5565b91505061295b606083018463ffffffff8151168252602081015167ffffffffffffffff80821660208501528060408401511660408501525050606081015115156060830152608081015160808301525050565b8284823760609190911b7fffffffffffffffffffffffffffffffffffffffff000000000000000000000000169101908152601401919050565b602081525f6131ba6020830184866130b5565b949350505050565b5f63ffffffff8216806131d7576131d7613031565b7fffffffffffffffffffffffffffffffffffffffffffffffffffffffffffffffff0192915050565b60e081525f61321160e0830187613071565b82810360208401526132248186886130b5565b915050611d68604083018463ffffffff8151168252602081015167ffffffffffffffff80821660208501528060408401511660408501525050606081015115156060830152608081015160808301525050565b7f4e487b71000000000000000000000000000000000000000000000000000000005f52603260045260245ffd5b5f8083357fffffffffffffffffffffffffffffffffffffffffffffffffffffffffffffffe18436030181126132d7575f80fd5b83018035915067ffffffffffffffff8211156132f1575f80fd5b6020019150368190038213156129a4575f80fd5b5f5b8381101561331f578181015183820152602001613307565b50505f910152565b5f815180845261333e816020860160208601613305565b601f01601f19169290920160200192915050565b5f61010080835261336581840188613071565b905082810360208401526133798187613327565b9050828103604084015261338d8186613327565b915050611d68606083018463ffffffff8151168252602081015167ffffffffffffffff80821660208501528060408401511660408501525050606081015115156060830152608081015160808301525050565b8183525f60208085019450825f5b858110156130aa5767ffffffffffffffff61340883612a2c565b16875295820195908201906001016133ee565b604081525f61342e6040830186886133e0565b828103602084015261295b8185876130b5565b5f63ffffffff80831681810361345957613459613031565b6001019392505050565b63ffffffff82811682821603908082111561348057613480613031565b5092915050565b60c081525f61349a60c0830185876133e0565b90506131ba602083018463ffffffff8151168252602081015167ffffffffffffffff80821660208501528060408401511660408501525050606081015115156060830152608081015160808301525050565b5f602082840312156134fc575f80fd5b61283082612a2c565b67ffffffffffffffff82811682821603908082111561348057613480613031565b67ffffffffffffffff81811683821602808216919082811461354a5761354a613031565b505092915050565b67ffffffffffffffff81811683821601908082111561348057613480613031565b8181038181111561139f5761139f613031565b60e081525f61359960e0830186886133e0565b9050836020830152611d68604083018463ffffffff8151168252602081015167ffffffffffffffff80821660208501528060408401511660408501525050606081015115156060830152608081015160808301525050565b5f82613624577f4e487b71000000000000000000000000000000000000000000000000000000005f52601260045260245ffd5b500690565b5f835161363a818460208801613305565b60609390931b7fffffffffffffffffffffffffffffffffffffffff000000000000000000000000169190920190815260140192915050565b602081525f6128306020830184613327565b80515f9060208084018383156130aa57815167ffffffffffffffff1687529582019590820190600101613084565b5f6128308284613684565b7fffffffffffffffffffffffffffffffffffffffff0000000000000000000000008360601b1681525f6131ba6014830184613684565b63ffffffff81811683821601908082111561348057613480613031565b5f60208284031215613720575f80fd5b815161283081612abb565b808202811582820484141761139f5761139f61303156fea26469706673582212201e854e2755e24f7c4b395af307c15de1c046c65db1bd09ae205a35d9392aec7e64736f6c63430008180033",
  "linkReferences": {},
  "deployedLinkReferences": {}
}